{
  "contractName": "CRR",
  "abi": [
    {
      "inputs": [],
      "payable": false,
      "stateMutability": "nonpayable",
      "type": "constructor"
    },
    {
      "anonymous": false,
      "inputs": [
        {
          "indexed": false,
          "internalType": "uint256",
          "name": "tid",
          "type": "uint256"
        }
      ],
      "name": "badResult",
      "type": "event"
    },
    {
      "anonymous": false,
      "inputs": [
        {
          "indexed": false,
          "internalType": "uint256",
          "name": "tid",
          "type": "uint256"
        },
        {
          "indexed": false,
          "internalType": "uint256",
          "name": "_reward",
          "type": "uint256"
        },
        {
          "indexed": false,
          "internalType": "uint256",
          "name": "_min_deposit",
          "type": "uint256"
        }
      ],
      "name": "newTask",
      "type": "event"
    },
    {
      "anonymous": false,
      "inputs": [
        {
          "indexed": false,
          "internalType": "uint256",
          "name": "tid",
          "type": "uint256"
        }
      ],
      "name": "registerCompleted",
      "type": "event"
    },
    {
      "anonymous": false,
      "inputs": [
        {
          "indexed": false,
          "internalType": "uint256",
          "name": "tid",
          "type": "uint256"
        }
      ],
      "name": "registeredFor",
      "type": "event"
    },
    {
      "anonymous": false,
      "inputs": [
        {
          "indexed": false,
          "internalType": "uint256",
          "name": "tid",
          "type": "uint256"
        },
        {
          "indexed": false,
          "internalType": "int256",
          "name": "results",
          "type": "int256"
        }
      ],
      "name": "taskResult",
      "type": "event"
    },
    {
      "anonymous": false,
      "inputs": [
        {
          "indexed": false,
          "internalType": "uint256",
          "name": "tid",
          "type": "uint256"
        }
      ],
      "name": "verifiedResult",
      "type": "event"
    },
    {
      "constant": false,
      "inputs": [],
      "name": "startJob",
      "outputs": [
        {
          "internalType": "bool",
          "name": "",
          "type": "bool"
        }
      ],
      "payable": false,
      "stateMutability": "nonpayable",
      "type": "function"
    },
    {
      "constant": true,
      "inputs": [],
      "name": "getOwner",
      "outputs": [
        {
          "internalType": "address",
          "name": "",
          "type": "address"
        }
      ],
      "payable": false,
      "stateMutability": "view",
      "type": "function"
    },
    {
      "constant": true,
      "inputs": [],
      "name": "getTotalParticipantsCount",
      "outputs": [
        {
          "internalType": "uint256",
          "name": "",
          "type": "uint256"
        }
      ],
      "payable": false,
      "stateMutability": "view",
      "type": "function"
    },
    {
      "constant": true,
      "inputs": [],
      "name": "getContractBalance",
      "outputs": [
        {
          "internalType": "uint256",
          "name": "",
          "type": "uint256"
        }
      ],
      "payable": false,
      "stateMutability": "view",
      "type": "function"
    },
    {
      "constant": false,
      "inputs": [
        {
          "internalType": "uint256",
          "name": "_taskId",
          "type": "uint256"
        },
        {
          "internalType": "uint256",
          "name": "_min_deposit",
          "type": "uint256"
        }
      ],
      "name": "initializeContext",
      "outputs": [],
      "payable": true,
      "stateMutability": "payable",
      "type": "function"
    },
    {
      "constant": false,
      "inputs": [
        {
          "internalType": "uint256",
          "name": "taskId",
          "type": "uint256"
        }
      ],
      "name": "registerExecutor",
      "outputs": [],
      "payable": true,
      "stateMutability": "payable",
      "type": "function"
    },
    {
      "constant": false,
      "inputs": [
        {
          "internalType": "uint256",
          "name": "taskId",
          "type": "uint256"
        },
        {
          "internalType": "int256",
          "name": "resultHash",
          "type": "int256"
        }
      ],
      "name": "submitResults",
      "outputs": [],
      "payable": true,
      "stateMutability": "payable",
      "type": "function"
    },
    {
      "constant": false,
      "inputs": [],
      "name": "payExecutors",
      "outputs": [],
      "payable": true,
      "stateMutability": "payable",
      "type": "function"
    }
  ],
  "bytecode": "0x608060405234801561001057600080fd5b50336000806101000a81548173ffffffffffffffffffffffffffffffffffffffff021916908373ffffffffffffffffffffffffffffffffffffffff1602179055506000600181905550600060058190555060006002819055506000600860006101000a81548160ff0219169083151502179055506109cd806100936000396000f3fe60806040526004361061007b5760003560e01c8063a4d8cf9f1161004e578063a4d8cf9f1461015c578063ccce7e8614610166578063f637ea9614610194578063f8c66bc1146101cc5761007b565b80630528e387146100805780634aa2d331146100af5780636f9fb98a146100da578063893d20e814610105575b600080fd5b34801561008c57600080fd5b50610095610204565b604051808215151515815260200191505060405180910390f35b3480156100bb57600080fd5b506100c46102da565b6040518082815260200191505060405180910390f35b3480156100e657600080fd5b506100ef6102e4565b6040518082815260200191505060405180910390f35b34801561011157600080fd5b5061011a6102ec565b604051808273ffffffffffffffffffffffffffffffffffffffff1673ffffffffffffffffffffffffffffffffffffffff16815260200191505060405180910390f35b610164610315565b005b6101926004803603602081101561017c57600080fd5b8101908080359060200190929190505050610446565b005b6101ca600480360360408110156101aa57600080fd5b810190808035906020019092919080359060200190929190505050610716565b005b610202600480360360408110156101e257600080fd5b8101908080359060200190929190803590602001909291905050506107c0565b005b600080600181905550600060058190555060006002819055506000600860006101000a81548160ff02191690831515021790555060008090505b6009805490508110156102c457600a60006009838154811061025c57fe5b90600052602060002001548152602001908152602001600020600061028191906108eb565b600b60006009838154811061029257fe5b9060005260206000200154815260200190815260200160002060006102b7919061090c565b808060010191505061023e565b50600960006102d3919061092d565b6001905090565b6000600554905090565b600047905090565b60008060009054906101000a900473ffffffffffffffffffffffffffffffffffffffff16905090565b60006006541161038d576040517f08c379a00000000000000000000000000000000000000000000000000000000081526004018080602001828103825260138152602001807f6a6f62206e6f742079657420737461727465640000000000000000000000000081525060200191505060405180910390fd5b60075460065414610406576040517f08c379a00000000000000000000000000000000000000000000000000000000081526004018080602001828103825260108152602001807f6a6f62206e6f742079657420646f6e650000000000000000000000000000000081525060200191505060405180910390fd5b6000600860006101000a81548160ff021916908315150217905561042957600080fd5b6001600860006101000a81548160ff021916908315150217905550565b60045434101561045557600080fd5b6002600a600083815260200190815260200160002080549050106104e1576040517f08c379a00000000000000000000000000000000000000000000000000000000081526004018080602001828103825260118152602001807f726567697374726174696f6e2066756c6c00000000000000000000000000000081525060200191505060405180910390fd5b6000600a60008381526020019081526020016000208054905014156105b357600a60008281526020019081526020016000203390806001815401808255809150509060018203906000526020600020016000909192909190916101000a81548173ffffffffffffffffffffffffffffffffffffffff021916908373ffffffffffffffffffffffffffffffffffffffff160217905550507fd4d94e00d7f2d81e1528ab2525d796ee69bebcdefa742063510a70e47fa3918f816040518082815260200191505060405180910390a1610713565b6001600a600083815260200190815260200160002080549050141561068557600a60008281526020019081526020016000203390806001815401808255809150509060018203906000526020600020016000909192909190916101000a81548173ffffffffffffffffffffffffffffffffffffffff021916908373ffffffffffffffffffffffffffffffffffffffff160217905550507f6152d5b257cc8f258361a4952d20583c8f6e333297294aacd9423afa38e8eb31816040518082815260200191505060405180910390a1610712565b6002600a60008381526020019081526020016000208054905010610711576040517f08c379a00000000000000000000000000000000000000000000000000000000081526004018080602001828103825260118152602001807f726567697374726174696f6e2066756c6c00000000000000000000000000000081525060200191505060405180910390fd5b5b5b50565b34600381905550806004819055506009829080600181540180825580915050906001820390600052602060002001600090919290919091505550343373ffffffffffffffffffffffffffffffffffffffff16311161077357600080fd5b7f4470fbfd43622f9df45272968e4611be245225bc7816e1484843c7e7852d3834826003548360405180848152602001838152602001828152602001935050505060405180910390a15050565b6000600b600084815260200190815260200160002080549050141561082157600b60008381526020019081526020016000208190806001815401808255809150509060018203906000526020600020016000909192909190915055506108e7565b6001600b60008481526020019081526020016000208054905014156108e65780600b600084815260200190815260200160002060008154811061086057fe5b906000526020600020015414156108ad577ff9e4dee4a5cc23666c62364fb0568dcd7894c6a5ddd71c7d1be396f13edb161d826040518082815260200191505060405180910390a16108e5565b7f5c294404c99ce75d2421c81d85219cee4cf20cae2e12e44b2d966a69d4a9a5e6826040518082815260200191505060405180910390a15b5b5b5050565b5080546000825590600052602060002090810190610909919061094e565b50565b508054600082559060005260206000209081019061092a9190610973565b50565b508054600082559060005260206000209081019061094b919061094e565b50565b61097091905b8082111561096c576000816000905550600101610954565b5090565b90565b61099591905b80821115610991576000816000905550600101610979565b5090565b9056fea265627a7a723158203808340765556fc99b38a4a2d0638decd8fb365dd6b0b531696747bacc85896864736f6c63430005100032",
  "source": "pragma solidity ^0.5.0;\n\ncontract CRR {\n  address  _owner;\n  uint _total_pot;\n  uint _state;\n  uint _rew;\n  uint _min_dep;\n  uint _total_particpants;\n  uint  total_tasks;\n  uint completed_tasks;\n  bool _pay_executor_called;\n\n  uint[] taskIds;\n  mapping(uint => address[]) participants;\n  mapping(uint => int[]) results;\n\n  event newTask(uint tid, uint _reward, uint _min_deposit);\n  event registeredFor(uint tid);\n  event registerCompleted(uint tid);\n  event taskResult(uint tid, int results);\n  event badResult(uint tid);\n  event verifiedResult(uint tid);\n\n  constructor() public {\n  \t_owner = msg.sender;\n  \t_total_pot = 0;\n    _total_particpants=0;\n    _state = 0;\n    _pay_executor_called=false;\n  }\n\n  function startJob() public returns (bool) {\n    _total_pot = 0;\n    _total_particpants = 0;\n    _state = 0;\n    _pay_executor_called=false;\n    for(uint i=0; i<taskIds.length; i++){\n      delete participants[taskIds[i]];\n      delete results[taskIds[i]];\n    }\n    delete taskIds;\n    return true;\n  }\n\n  function getOwner() public view returns (address) {\n\treturn _owner;\n  }\n\n  function getTotalParticipantsCount() public view returns (uint) {\n    return _total_particpants;\n  }\n\n  function getContractBalance() public view returns (uint) {\n    return address(this).balance;\n  }\n\n  function initializeContext(uint _taskId, uint _min_deposit) public payable{\n      _rew = msg.value;\n      _min_dep = _min_deposit;\n      taskIds.push(_taskId);\n      require(msg.sender.balance > msg.value);\n      emit newTask(_taskId , _rew ,_min_deposit);\n  }\n\n  function registerExecutor(uint taskId) public payable{\n    require(msg.value >= _min_dep);\n    require(participants[taskId].length < 2, \"registration full\");\n    if(participants[taskId].length == 0){\n      participants[taskId].push(msg.sender);\n      emit registeredFor(taskId);\n    }\n    else if(participants[taskId].length == 1){\n      participants[taskId].push(msg.sender);\n      emit registerCompleted(taskId);\n    }\n    else{\n      require(participants[taskId].length < 2, \"registration full\");\n    }\n  }\n\n  function submitResults(uint taskId, int resultHash) public payable{\n    if (results[taskId].length == 0){\n      results[taskId].push(resultHash);\n    }\n    else if(results[taskId].length == 1){\n      if(results[taskId][0] == resultHash){\n        emit verifiedResult(taskId);\n      }\n      else{\n        emit badResult(taskId);\n      }\n    }\n  }\n\n  function payExecutors() public payable{\n    require(total_tasks > 0, \"job not yet started\");\n    require(total_tasks == completed_tasks, \"job not yet done\");\n    require(_pay_executor_called = false);\n    _pay_executor_called=true;\n  }\n}\n\n",
  "sourcePath": "/home/john/personal/distrib-verifiable/contracts/src/contracts/CRR.sol",
  "compiler": {
    "name": "solc",
    "version": "0.5.16+commit.9c3226ce.Emscripten.clang"
  },
  "schemaVersion": "3.4.3",
  "updatedAt": "2021-11-05T12:26:15.331Z",
  "networkType": "ethereum",
  "devdoc": {
    "methods": {}
  },
  "userdoc": {
    "methods": {}
  }
}